:1000000002046BE4F514F51580FE3202033FAE8C5A
:10001000AF8AEFFDAF06EFFEAF0522020026EFF438
:0A00200052C92202065EB295323288
:03002B000204F7D5
:100033000206B8C2D5E830E70FB2D5E4C39BFBE4B0
:100043009AFAE499F9E498F8EC30E717B2D512007C
:100053006C1201BFE4C39BFBE49AFAE499F9E498B8
:10006300F880031201BF30D50DE4C39FFFE49EFE69
:07007300E49DFDE49CFC226A
:03007B0002000A76
:0F00830002002990F16CE0FEEFF4FFEE5FF02237
:1000930002057DEFFB7A007005EDF4F59822EB6421
:0900A300014A7004EDF4F5EA22B3
:1000B300020603BB010689828A83E0225002E722FB
:1000C300BBFE02E32289828A83E49322BB010CE50F
:1000D3008229F582E5833AF583E0225006E92582F9
:1000E300F8E622BBFE06E92582F8E222E58229F53D
:1000F30082E5833AF583E49322BB0110E58229F577
:1001030082E5833AF583E0F5F0A3E0225009E9257F
:1001130082F886F008E622BBFE0AE92582F8E2F5BA
:10012300F008E222E5832AF583E993F5F0A3E99346
:1001330022E88FF0A4CC8BF0A42CFCE98EF0A42C45
:10014300FC8AF0EDA42CFCEA8EF0A4CDA8F08BF091
:10015300A42DCC3825F0FDE98FF0A42CCD35F0FC8F
:10016300EB8EF0A4FEA9F0EB8FF0A4CFC5F02ECD5B
:1001730039FEE43CFCEAA42DCE35F0FDE43CFC2240
:1001830075F008758200EF2FFFEE33FECD33CDCC33
:1001930033CCC58233C5829BED9AEC99E5829840B6
:1001A3000CF582EE9BFEED9AFDEC99FC0FD5F0D693
:1001B300E4CEFBE4CDFAE4CCF9A88222B800C1B9BD
:1001C3000059BA002DEC8BF084CFCECDFCE5F0CBFB
:1001D300F97818EF2FFFEE33FEED33FDEC33FCEB34
:1001E30033FB10D703994004EB99FB0FD8E5E4F9EF
:1001F300FA227818EF2FFFEE33FEED33FDEC33FCDC
:10020300C933C910D7059BE99A4007EC9BFCE99ACF
:10021300F90FD8E0E4C9FAE4CCFB2275F010EF2F14
:10022300FFEE33FEED33FDCC33CCC833C810D70714
:100233009BEC9AE899400AED9BFDEC9AFCE899F84F
:100243000FD5F0DAE4CDFBE4CCFAE4C8F922EB9F56
:10025300F5F0EA9E42F0E99D42F0E89C45F022E881
:10026300600FECC313FCED13FDEE13FEEF13FFD889
:10027300F122BB010DE58229F582E5833AF583027C
:1002830002E15007E92582F80202D5BBFE07E92502
:1002930082F80202EDE58229F582E5833AF58302CD
:1002A30002F9BB010DE58229F582E5833AF5830264
:1002B30003165007E92582F8020309BBFE07E92567
:1002C30082F8020322E58229F582E5833AF5830267
:1002D300032FE6FC08E6FD08E6FE08E6FF22E0FC45
:1002E300A3E0FDA3E0FEA3E0FF22E2FC08E2FD0899
:1002F300E2FE08E2FF22E493FC740193FD7402938F
:10030300FE740393FF22E6FB08E6F908E6FA08E623
:10031300CBF822E0F8A3E0F9A3E0FAA3E0FB22E2A2
:10032300FB08E2F908E2FA08E2CBF822E493F87456
:100333000193F9740293FA740393FB22C0E0C0F0B3
:10034300C083C082C0D075D000C000C001C002C04D
:1003530003C004C005C006C007751B00751A0075ED
:10036300190075180012000E8E088F09E50F24017D
:10037300F50FE4350EF50EE4350DF50DE4350CF50A
:100383000CE47F64FEFDFCAB0FAA0EA90DA80CD3F1
:10039300120251400C750F00750E00750D00750C9F
:1003A30000E50F5401FFE4FEFCEF60047B018002D3
:1003B300E4FB7D057F011203D7D007D006D005D01B
:1003C30004D003D002D001D000D0D0D082D083D0CB
:1003D300F0D0E032EF7020EB600EA80574010880C6
:1003E30002C333D8FC428022A8057401088002C3EB
:1003F30033D8FCF4528022EF64017020EB600EA826
:10040300057401088002C333D8FC429022A8057406
:1004130001088002C333D8FCF4529022EF640270C7
:1004230020EB600EA8057401088002C333D8FC4298
:10043300A022A8057401088002C333D8FCF452A09B
:1004430022EF64037021EB600EA80574010880029B
:10045300C333D8FC42B022AF05A807740108800259
:10046300C333D8FCF452B022787FE4F6D8FD75810B
:10047300200204B2020003E493A3F8E493A340032D
:10048300F68001F208DFF48029E493A3F8540724EB
:100493000CC8C333C4540F4420C8834004F45680AB
:1004A3000146F6DFE4800B0102040810204080902F
:1004B3000736E47E019360BCA3FF543F30E5095443
:1004C3001FFEE493A360010ECF54C025E060A84053
:1004D300B8E493A3FAE493A3F8E493A3C8C582C84A
:1004E300CAC583CAF0A3C8C582C8CAC583CADFE91F
:1004F300DEE780BEC0E0C0F0C083C082C0D075D04C
:1005030000C000C001C002C003C004C005C006C0D3
:10051300077F80120794EF60057F8012001E7F40E3
:10052300120794EF60057F4012001E7F08120794A4
:10053300EF60057F0812001E7F04120794EF600529
:100543007F0412001E7F02120794EF60057F0212E0
:10055300001E7F01120794EF60057F0112001ED079
:1005630007D006D005D004D003D002D001D000D0EC
:10057300D0D082D083D0F0D0E032C0E0C0F0C083CE
:10058300C082C0D075D000C000C001C002C003C08B
:1005930004C005C006C0077F01120754EF60057F42
:1005A300011200867F02120754EF60057F021200DA
:1005B300867F04120754EF60057F041200867F08CC
:1005C300120765EF60057F081207A37F1012076506
:1005D300EF60057F101207A37F20120765EF600508
:1005E3007F201207A3D007D006D005D004D003D0B4
:1005F30002D001D000D0D0D082D083D0F0D0E0326E
:10060300C0E0C0F0C083C082C0D075D000C000C0BD
:1006130001C002C003C004C005C006C007751600B0
:100623007517007F80120776EF60157F80120785AC
:10063300EF700D7F40120785EF70057F101207855D
:10064300D007D006D005D004D003D002D001D0000B
:10065300D0D0D082D083D0F0D0E032C0E0C0F0C0A0
:1006630083C082C0D075D000C000C001C002C003E7
:10067300C004C005C006C0077D02E4FF120712EFE5
:1006830060077D02E4FF1200967D01E4FF1207126A
:10069300EF60077D02E4FF120096D007D006D00575
:1006A300D004D003D002D001D000D0D0D082D083E8
:1006B300D0F0D0E032C0E0C0F0C083C082C0D075BB
:1006C300D000C000C001C002C003C004C005C00602
:1006D300C0077D027F01120712EF60077D027F01D1
:1006E3001200967D017F01120712EF60077D027FE2
:1006F30001120096D007D006D005D004D003D00253
:10070300D001D000D0D0D082D083D0F0D0E032E47A
:10071300FCEFFB7A007006E5985DFC800AEB640150
:100723004A7004E5EA5DFCEC60047E018002E4FEAD
:10073300AF0622040C0000000004100000000002B9
:10074300080000020A0000012000041C016E3600AC
:1007530000E4FE90F16CE05F60030E8002E4FEAF04
:100763000622E4FE90F16DE05F60030E8002E4FE7A
:10077300AF0622E4FEE5B25F60030E8002E4FEAF43
:100783000622E4FEE5ED5F60030E8002E4FEAF06A1
:1007930022E4FEE5C95F60030E8002E4FEAF062299
:0C07A30090F16DE0FEEFF4FFEE5FF0223D
:00000001FF
