:10000000020EEDEFF452C922B29532020DC7AE8C4A
:10001000AF8AEFFDAF06EFFEAF05220200083232D5
:0300230002105A6E
:03002B00020F7948
:100033000210B4C2D5E830E70FB2D5E4C39BFBE4AA
:100043009AFAE499F9E498F8EC30E717B2D512007C
:100053006C120B51E4C39BFBE49AFAE499F9E4981C
:10006300F88003120B5130D50DE4C39FFFE49EFECD
:07007300E49DFDE49CFC226A
:03007B0002001E62
:1000830002001F1211D312110E7D12E4FF12119DF3
:100093007D13E4FF12119D7D14E4FF12119D7D1564
:0700A300E4FF12119D80E251
:1000B300020FFFEF600302024C120A357012900028
:1000C30008120A4E2400FDE434F08D82F583E4F037
:1000D300900001120A4EFE7009900008120A4EF4B5
:1000E300529AEEB40108900008120A4E429A900008
:1000F30002120A4EFEB4011890F008C083C082E0D9
:10010300FD900008120A4EF4FCED5CD082D083F01F
:10011300EE701790F008C083C082E0FE90000812D2
:100123000A4EFDEE4DD082D083F0900003120A4EAA
:10013300FE701890F009C083C082E0FD90000812A1
:100143000A4EF4FCED5CD082D083F0EEB40117903C
:10015300F009C083C082E0FE900008120A4EFDEE53
:100163004DD082D083F0900004120A4EFE70189096
:10017300F00AC083C082E0FD900008120A4EF4FC2E
:10018300ED5CD082D083F0EEB4011790F00AC08307
:10019300C082E0FE900008120A4EFDEE4DD082D0E0
:1001A30083F0900005120A4EFE701890F00BC08386
:1001B300C082E0FD900008120A4EF4FCED5CD08290
:1001C300D083F0EEB4011790F00BC083C082E0FE41
:1001D300900008120A4EFDEE4DD082D083F09000BD
:1001E30006120A4EFE701890F00CC083C082E0FD28
:1001F300900008120A4EF4FCED5CD082D083F0EE3E
:10020300B4011790F00CC083C082E0FE9000081286
:100213000A4EFDEE4DD082D083F0900007120A4EB5
:10022300FE701890F00DC083C082E0FD90000812AC
:100233000A4EF4FCED5CD082D083F0EE64016003DF
:100243000207CF90F00D020618EF64016003020469
:1002530083120A357012900008120A4E2410FDE42E
:1002630034F08D82F583E4F0900001120A4EFE70A3
:1002730015900008120A4EFD7401A805088002C3F8
:1002830033D8FCF452A1EEB40114900008120A4EC4
:10029300FE7401A806088002C333D8FC42A1900073
:1002A30002120A4EFEB4012290F018C083C082E00D
:1002B300FD900008120A4EFC7401A804088002C3D2
:1002C30033D8FCF45DD082D083F0EE702190F01827
:1002D300C083C082E0FE900008120A4EFD7401A89C
:1002E30005088002C333D8FC4ED082D083F090003F
:1002F30003120A4EFE702290F019C083C082E0FD03
:10030300900008120A4EFC7401A804088002C3334B
:10031300D8FCF45DD082D083F0EEB4012190F019C3
:10032300C083C082E0FE900008120A4EFD7401A84B
:1003330005088002C333D8FC4ED082D083F09000EE
:1003430004120A4EFE702290F01AC083C082E0FDB0
:10035300900008120A4EFC7401A804088002C333FB
:10036300D8FCF45DD082D083F0EEB4012190F01A72
:10037300C083C082E0FE900008120A4EFD7401A8FB
:1003830005088002C333D8FC4ED082D083F090009E
:1003930005120A4EFE702290F01BC083C082E0FD5E
:1003A300900008120A4EFC7401A804088002C333AB
:1003B300D8FCF45DD082D083F0EEB4012190F01B21
:1003C300C083C082E0FE900008120A4EFD7401A8AB
:1003D30005088002C333D8FC4ED082D083F090004E
:1003E30006120A4EFE702290F01CC083C082E0FD0C
:1003F300900008120A4EFC7401A804088002C3335B
:10040300D8FCF45DD082D083F0EEB4012190F01CCF
:10041300C083C082E0FE900008120A4EFD7401A85A
:1004230005088002C333D8FC4ED082D083F09000FD
:1004330007120A4EFE702290F01DC083C082E0FDB9
:10044300900008120A4EFC7401A804088002C3330A
:10045300D8FCF45DD082D083F0EE64016003020720
:10046300CF90F01DC083C082E0FF900008120A4EB7
:10047300FE7401A806088002C333D8FC4F0207CAE2
:10048300EF6402600302062A120A35701290000814
:10049300120A4E2420FDE434F08D82F583E4F090BB
:1004A3000001120A4EFE7009900008120A4EF4521F
:1004B300A2EEB40108900008120A4E42A290000274
:1004C300120A4EFEB4011890F028C083C082E0FDEA
:1004D300900008120A4EF4FCED5CD082D083F0EE5B
:1004E300701790F028C083C082E0FE900008120AC3
:1004F3004EFDEE4DD082D083F0900003120A4EFEE3
:10050300701890F029C083C082E0FD900008120AA1
:100513004EF4FCED5CD082D083F0EEB4011790F082
:1005230029C083C082E0FE900008120A4EFDEE4D02
:10053300D082D083F0900004120A4EFE701890F01F
:100543002AC083C082E0FD900008120A4EF4FCED3D
:100553005CD082D083F0EEB4011790F02AC083C040
:1005630082E0FE900008120A4EFDEE4DD082D08349
:10057300F0900005120A4EFE701890F02BC083C055
:1005830082E0FD900008120A4EF4FCED5CD082D0AC
:1005930083F0EEB4011790F02BC083C082E0FE908D
:1005A3000008120A4EFDEE4DD082D083F090000673
:1005B300120A4EFE701890F02CC083C082E0FD90AA
:1005C3000008120A4EF4FCED5CD082D083F0EEB446
:1005D300011790F02CC083C082E0FE900008120A3D
:1005E3004EFDEE4DD082D083F0900007120A4EFEEE
:1005F300701890F02DC083C082E0FD900008120AAD
:100603004EF4FCED5CD082D083F0EE640160030213
:1006130007CF90F02DC083C082E0FF900008120A3C
:100623004EFEEF4E0207CAEF640360030207CF12C8
:100633000A357012900008120A4E2430FFE434F099
:100643008F82F583E4F0900001120A4EFF70099047
:100653000008120A4EF452A3EFB4010890000812E6
:100663000A4E42A3900002120A4EFFB4011890F002
:1006730038C083C082E0FE900008120A4EF4FDEEFB
:100683005DD082D083F0EF701790F038C083C082C2
:10069300E0FF900008120A4EFEEF4ED082D083F0A6
:1006A300900003120A4EFF701890F039C083C08285
:1006B300E0FE900008120A4EF4FDEE5DD082D08376
:1006C300F0EFB4011790F039C083C082E0FF9000CF
:1006D30008120A4EFEEF4ED082D083F0900004122F
:1006E3000A4EFF701890F03AC083C082E0FE90007B
:1006F30008120A4EF4FDEE5DD082D083F0EFB40110
:100703001790F03AC083C082E0FF900008120A4EAF
:10071300FEEF4ED082D083F0900005120A4EFF7098
:100723001890F03BC083C082E0FE900008120A4E8E
:10073300F4FDEE5DD082D083F0EFB4011790F03B6F
:10074300C083C082E0FF900008120A4EFEEF4ED035
:1007530082D083F0900006120A4EFF701890F03C8E
:10076300C083C082E0FE900008120A4EF4FDEE5DE5
:10077300D082D083F0EFB4011790F03CC083C082E5
:10078300E0FF900008120A4EFEEF4ED082D083F0B5
:10079300900007120A4EFF701890F03DC083C0828C
:1007A300E0FE900008120A4EF4FDEE5DD082D08385
:1007B300F0EFB4011790F03DC083C082E0FF9000DA
:1007C30008120A4EFEEF4ED082D083F022EC4D6029
:1007D30011E8497017ED33EC3304600DE4FCFFFEC0
:1007E300FD22E933E8330470F8020A201209EB58BA
:1007F300046009E4CC24815006285009020A2A28FF
:100803004003020A27C0E0EB4A7044B98006D0E0F7
:10081300FB020A16EF4E701CBD8008EBFFEAFEE9EF
:10082300FD80EBE98DF0A4FEE5F00208B9E9CDF90E
:10083300EAFEEBFFEF89F0A4FCE5F0CE89F0A42EED
:10084300FFE435F0CD89F0A42DFEE435F08067EFA9
:100853004E7005BD80D780C3EF8BF0A4ACF0EE8B58
:10086300F0A42CFCE435F0F8EF8AF0A42CE5F03882
:10087300FCE433CB8DF0A42CFCE5F03BF8EE8AF0DE
:10088300A42CFCE5F038F8E433CF89F0A42CFCE584
:10089300F038CF3400CE89F0A42FFFE5F03EFEE41C
:1008A30033C98DF0A42EFEE5F039CD8AF0A42FFFD5
:1008B300E5F03EFEE43DFD33D0E0FB50070BBB000B
:1008C3000F020A2AEC2CFCEF33FFEE33FEED33FD6F
:1008D300020A02020A2AEC5D046005E85904700367
:1008E300020A201209EB580460F6EC4860F2EC703F
:1008F30004FDFEFF22C860DB2481C85009C3986051
:10090300025006020A279850CAF582E9294B4A7019
:1009130005AB82020A1675F0007C1A7880C3EF9B40
:10092300EE9AED99400DC3EF9BFFEE9AFEED99FD14
:10093300E842F0DC23ACF0D0E0FFD0E0FED0E0FDF5
:10094300AB8220E7101BEB60BAEC2CFCEF33FFEE1D
:1009530033FEED33FD020A02E803F830E705C0F089
:1009630075F000EF2FFFEE33FEED33FD40B830E7B7
:10097300C280AA75F020800E75F010800575F0080E
:100983007D007E007F003392D530D503120AB3EC8D
:10099300334010EF33FFEE33FEED33FDEC33FCD584
:1009A300F0ED22E5F0247EA2D513CC92E7CDCEFF65
:1009B30022EDD2E7CD33EC3392D524814006E4FF18
:1009C300FEFDFC22FCE4CFCECDCC24E0501174FF1D
:1009D30080EDC3CC13CCCD13CDCE13CECF13CF0428
:1009E30070F030D5DE020AB3E9D2E7C933E833F851
:1009F30092D5EDD2E7CD33EC33FC5002B2D522ECE5
:100A030030E7100FBF000C0EBE00080DBD00040B35
:100A1300EB6014A2D5EB13FCED92E7FD2274FFFC0F
:100A2300FDFEFF22E480F8A2D574FF13FC7D80E471
:100A330080EFBB010689828A83E0225002E722BB52
:100A4300FE02E32289828A83E49322BB010CE582BE
:100A530029F582E5833AF583E0225006E92582F8F9
:100A6300E622BBFE06E92582F8E222E58229F58229
:100A7300E5833AF583E49322BB0110E58229F582ED
:100A8300E5833AF583E0F5F0A3E0225009E92582F6
:100A9300F886F008E622BBFE0AE92582F8E2F5F0C3
:100AA30008E222E5832AF583E993F5F0A3E993228B
:100AB300C3E49FFFE49EFEE49DFDE49CFC22EB9FC8
:100AC300F5F0EA9E42F0E99D42F0E89C45F022E809
:100AD300600FECC313FCED13FDEE13FEEF13FFD811
:100AE300F122BB010DE58229F582E5833AF5830204
:100AF3000BEF5007E92582F8020BE3BBFE07E9255C
:100B030082F8020BFBE58229F582E5833AF583023D
:100B13000C0775F008758200EF2FFFEE33FECD331F
:100B2300CDCC33CCC58233C5829BED9AEC99E5825B
:100B330098400CF582EE9BFEED9AFDEC99FC0FD5E7
:100B4300F0D6E4CEFBE4CDFAE4CCF9A88222B800D7
:100B5300C1B90059BA002DEC8BF084CFCECDFCE5A2
:100B6300F0CBF97818EF2FFFEE33FEED33FDEC33C6
:100B7300FCEB33FB10D703994004EB99FB0FD8E54B
:100B8300E4F9FA227818EF2FFFEE33FEED33FDEC94
:100B930033FCC933C910D7059BE99A4007EC9BFC8A
:100BA300E99AF90FD8E0E4C9FAE4CCFB2275F01016
:100BB300EF2FFFEE33FEED33FDCC33CCC833C8103B
:100BC300D7079BEC9AE899400AED9BFDEC9AFCE869
:100BD30099F80FD5F0DAE4CDFBE4CCFAE4C8F922B6
:100BE300E6FC08E6FD08E6FE08E6FF22E0FCA3E0DB
:100BF300FDA3E0FEA3E0FF22E2FC08E2FD08E2FE23
:100C030008E2FF22E493FC740193FD740293FE74E3
:100C13000393FF228F1A8B1B8A1C891DE4F521F590
:100C230020F51FF51EE51A6003020D47F598AB1B6F
:100C3300AA1CA91D900001120A4EC43354E0FF12EE
:100C43000A35FE4FFF900002120A4EC454F04FFFC4
:100C5300900003120A4E33333354F84FFF900004CD
:100C6300120A4E25E025E04F429853877F900005F6
:100C7300120A4EFFC433333354804287EE6440601C
:100C830010AB1BAA1CA91D120A3564C06003020D18
:100C9300C6AB1BAA1CA91D900006120A4E70515325
:100CA30091FE53890F438920538EEF900007120A58
:100CB3007BFDACF0EC12097BA804A905AA06AB07DF
:100CC3007F007E247D747C491208D9E4FBFA798085
:100CD30078411208D9E4FBFA7940783F1208D91217
:100CE30009B4EFF404F58BF58D43A88843884022BB
:100CF300AB1BAA1CA91D900006120A4E64016003D7
:100D0300020DC643910153D20F43D26090000712E4
:100D13000A7BFDACF0EC12097BA804A905AA06AB7B
:100D2300077F007E247D747C491208D9E4FBFA799D
:100D330080783E1207D01209B4EFF404F5E2F5E32C
:100D430043D28022E51A64017079F5EAAB1BAA1C31
:100D5300A91D900001120A4EC43354E0FF120A3554
:100D6300FE4FFF900002120A4EC454F04FFF900052
:100D730003120A4E33333354F84FFF900004120A20
:100D83004E25E025E04F42EA5387BF900005120A43
:100D93004EC4333354C04287EE6440600CAB1BAA8D
:100DA3001CA91D120A35B4C01AAB1BAA1CA91D909D
:100DB3000006120A4EFF70045391FD22EFB40103A3
:100DC30043910222C0E0C0F0C083C082C0D075D07E
:100DD30000C000C001C002C003C004C005C006C0FB
:100DE3000775270075260075250075240012000E6F
:100DF3008E288F29E52F2401F52FE4352EF52EE4D7
:100E0300352DF52DE4352CF52CE47F64FEFDFCAB8C
:100E13002FAA2EA92DA82CD3120AC1400C752F007E
:100E2300752E00752D00752C00E52F5401FFE4FE8F
:100E3300FCEF60047B018002E4FB7D057F01120E61
:100E43005FD007D006D005D004D003D002D001D0A4
:100E530000D0D0D082D083D0F0D0E032EF7020EB3E
:100E6300600E7401A805088002C333D8FC428022B7
:100E73007401A805088002C333D8FCF4528022BF52
:100E83000120EB600E7401A805088002C333D8FC6F
:100E93004290227401A805088002C333D8FCF4529F
:100EA3009022BF0220EB600E7401A805088002C3E4
:100EB30033D8FC42A0227401A805088002C333D8AA
:100EC300FCF452A022BF0321EB600E7401A80508B5
:100ED3008002C333D8FC42B022AF057401A80708CF
:100EE3008002C333D8FCF452B022787FE4F6D8FDF5
:100EF300758138020F34020086E493A3F8E493A3C8
:100F03004003F68001F208DFF48029E493A3F85448
:100F130007240CC8C333C4540F4420C8834004F4CB
:100F230056800146F6DFE4800B01020408102040DE
:100F330080901205E47E019360BCA3FF543F30E52B
:100F430009541FFEE493A360010ECF54C025E06053
:100F5300A840B8E493A3FAE493A3F8E493A3C8C521
:100F630082C8CAC583CAF0A3C8C582C8CAC583CA12
:100F7300DFE9DEE780BEC0E0C0F0C083C082C0D03E
:100F830075D000C000C001C002C003C004C005C0CA
:100F930006C0077F8012126FEF60057F8012000387
:100FA3007F4012126FEF60057F401200037F08122B
:100FB300126FEF60057F081200037F0412126FEFB8
:100FC30060057F041200037F0212126FEF60057F3A
:100FD300021200037F0112126FEF60057F011200FE
:100FE30003D007D006D005D004D003D002D001D05F
:100FF30000D0D0D082D083D0F0D0E032C0E0C0F0B7
:10100300C083C082C0D075D000C000C001C002C080
:1010130003C004C005C006C0077522007523007F06
:1010230080121251EF60157F80121260EF700D7FF6
:1010330040121260EF70057F10121260D007D006C5
:10104300D005D004D003D002D001D000D0D0D082BC
:10105300D083D0F0D0E032C0E0C0F0C083C082C003
:10106300D075D000C000C001C002C003C004C005D9
:10107300C006C0077D02E4FF121223EF60077D0262
:10108300E4FF1212417D01E4FF121223EF60077D9A
:1010930002E4FF121241D007D006D005D004D003DA
:1010A300D002D001D000D0D0D082D083D0F0D0E015
:1010B30032C0E0C0F0C083C082C0D075D000C00091
:1010C300C001C002C003C004C005C006C0077D0242
:1010D3007F01121223EF60077D027F011212417D0F
:1010E300017F01121223EF60077D027F011212417B
:1010F300D007D006D005D004D003D002D001D00051
:10110300D0D0D082D083D0F0D0E0327D027F1912CC
:10111300115C750801751005750901750A01E4F57F
:101123000B750C01750D01750E01750F01FB7A002E
:1011330079087F021200B6751140E4F512F51375B4
:101143001401751501751601F517751825751980A4
:10115300FB7A007911FF020C17EFC394085005EFD7
:1011630024008028EFC394125008C3EF940A24107C
:10117300801AEFC3941C5008C3EF94142420800CEE
:10118300EFC394265013C3EF941E2430FBE434F0D2
:101193008B82F583E4F0E04DF022EF7018E598546C
:1011A30002C313640160F68D99E5985402C313607A
:1011B300F85398FD22BF0117E5EA5402C3136401F3
:1011C30060F68DEBE5EA5402C31360F853EAFD229F
:1011D300E4F508750901750A01F50B750C01750D28
:1011E30001750E01750F01751005FB7A0079087FF3
:1011F300011200B67510067B007A0079087F0102A0
:1012030000B6042C00000000043000000000022897
:101213000000022A00000138000434007A120000A2
:10122300E4FCEF7006E5985DFC8007BF0104E5EA86
:101233005DFCEC60047E018002E4FEAF0622EF70E9
:1012430005EDF4F59822BF0104EDF4F5EA22E4FE7E
:10125300E5B25F60030E8002E4FEAF0622E4FEE522
:10126300ED5F60030E8002E4FEAF0622E4FEE5C9F3
:0B1273005F60030E8002E4FEAF062265
:00000001FF
