:0A000000020FAEEFF452C9223232B3
:10000B00020E82AE8CAF8AEFFDAF06EFFEAF05227C
:0B001B0002103A12125D80FE0211A9D3
:03002B000210C6FA
:10003300021203C2D5E830E70FB2D5E4C39BFBE459
:100043009AFAE499F9E498F8EC30E717B2D512007C
:100053006C120719E4C39BFBE49AFAE499F9E49858
:10006300F8800312071930D50DE4C39FFFE49EFE09
:07007300E49DFDE49CFC226A
:03007B0002000878
:10008300020009EFB40A07740D120091740A309844
:1000930011A899B8130CC2983098FDA899C298B8C2
:0A00A30011F63099FDC299F599227B
:1000B30002114EEC4D6011E8497017ED33EC330437
:1000C300600DE4FCFFFEFD22E933E8330470F8021F
:1000D30003061202D158046009E4CC248150062897
:1000E300500902031028400302030DC0E0EB4A70DD
:1000F30044B98006D0E0FB0202FCEF4E701CBD80C9
:1001030008EBFFEAFEE9FD80EBE98DF0A4FEE5F0E4
:1001130002019FE9CDF9EAFEEBFFEF89F0A4FCE5CC
:10012300F0CE89F0A42EFFE435F0CD89F0A42DFEA6
:10013300E435F08067EF4E7005BD80D780C3EF8B49
:10014300F0A4ACF0EE8BF0A42CFCE435F0F8EF8ACD
:10015300F0A42CE5F038FCE433CB8DF0A42CFCE5C3
:10016300F03BF8EE8AF0A42CFCE5F038F8E433CF4A
:1001730089F0A42CFCE5F038CF3400CE89F0A42F0D
:10018300FFE5F03EFEE433C98DF0A42EFEE5F03921
:10019300CD8AF0A42FFFE5F03EFEE43DFD33D0E031
:1001A300FB50070BBB000F020310EC2CFCEF33FFDB
:1001B300EE33FEED33FD0202E8020310EC5D046052
:1001C30005E8590470030203061202D1580460F6CD
:1001D300EC4860F2EC7004FDFEFF22C860DB248172
:1001E300C85009C3986002500602030D9850CAF51F
:1001F30082E9294B4A7005AB820202FC75F0007C50
:100203001A7880C3EF9BEE9AED99400DC3EF9BFFE5
:10021300EE9AFEED99FDE842F0DC23ACF0D0E0FF6E
:10022300D0E0FED0E0FDAB8220E7101BEB60BAEC20
:100233002CFCEF33FFEE33FEED33FD0202E8E8035F
:10024300F830E705C0F075F000EF2FFFEE33FEED59
:1002530033FD40B830E7C280AA75F020800E75F0F8
:1002630010800575F0087D007E007F003392D53045
:10027300D503120645EC334010EF33FFEE33FEEDAA
:1002830033FDEC33FCD5F0ED22E5F0247EA2D5134B
:10029300CC92E7CDCEFF22EDD2E7CD33EC3392D52E
:1002A30024814006E4FFFEFDFC22FCE4CFCECDCC4E
:1002B30024E0501174FF80EDC3CC13CCCD13CDCE0D
:1002C30013CECF13CF0470F030D5DE020645E9D24A
:1002D300E7C933E833F892D5EDD2E7CD33EC33FCFD
:1002E3005002B2D522EC30E7100FBF000C0EBE0057
:1002F300080DBD00040BEB6014A2D5EB13FCED92CB
:10030300E7FD2274FFFCFDFEFF22E480F8A2D57412
:10031300FF13FC7D80E480EFF920E72824F95003E4
:100323007907E4F42402FB18DBFDE624FB5014E90F
:10033300600DE4F618E604F6B40A08E4F6D9F57499
:1003430001F60A22C2D522ED33EC3392D5FA602AA4
:10035300B4FF33EDC2E77BFF60067A03796FE422D3
:100363007A03797820D5047A037973224E614E009B
:100373002B494E46002D494E4600E47A08F608DA2A
:10038300FC7B00740722E8C0E0ECC0E0EDC0E0EEC7
:10039300C0E0EFC0E0EA75F010A4CAABF075F04D11
:1003A300A42BFBE435F0FCEA2410FAEB34C5FBEC98
:1003B30034D9FCEDC2E7FF75F056A4F42411C5F05F
:1003C300F434C58FF0A42AE5F03BE43CF620E714AF
:1003D300120575D0E0FFD0E0FED0E0FDD0E0FC12C6
:1003E30001BF8014F404120575D0E0FFD0E0FED005
:1003F300E0FDD0E0FC1200B6D0E0F8E6FAEDD2E77B
:10040300CD33EC332482FBE4C3CF33CFCE33CECD15
:1004130033CD33DBF37B0775F00A846004F6081BE6
:100423000AE5F0F6088FF0740AA4FFACF08EF074BE
:100433000AA42CFEACF050010C8DF0740AA42CFD20
:10044300E435F0F608DBDE740722020306E8648075
:10045300F8E933E83360110460F0ED33EC337009ED
:10046300E8FCE9FDEAFEEBFF220460DED3EB9FEA42
:100473009EE99DE8C2E78CF0C2F795F0400CE8CC0A
:10048300F8E9CDF9EACEFAEBCFFB1202D185D0F031
:100493005804700320D5B3E80470075002B2D502A4
:1004A300031092D5EC0460F7E4CCC0E0C398F86085
:1004B3003B94186008400DD0E0FB0202E8E4FBFA2D
:1004C300C9FC8028E830E406E4C9FBE4CAFCE83050
:1004D300E305E4C9CACBFCE854076010F8C3E91389
:1004E300F9EA13FAEB13FBEC13FCD8F130F52FC345
:1004F300E49CFCEF9BFFEE9AFEED99FDD0E0FBEF51
:100503004E4D4C701222DB0302030DEC2CFCEF3337
:10051300FFEE33FEED33FDED30E7EB0202E8EF2BA8
:10052300FFEE3AFEED39FDD0E0FB50130BBB0003A9
:10053300020310ED13FDEE13FEEF13FFEC13FC02A9
:1005430002E83F8000004120000042C80000447AD6
:100553000000461C400047C35000497424004B1858
:1005630096804CBEBC205A0E1BCA6753C21C749D96
:10057300C5AEFB60065407601C23231205A3EB548E
:1005830038600912058F12059E1200B6ECF8EDF9DA
:10059300EEFAEFCB22EB12059E80F1543803241CB4
:1005A300900545FE93FC0EEE93FD0EEE930ECE9357
:1005B300FF22BB010689828A83E0225002E722BB25
:1005C300FE02E32289828A83E49322BB010CE58243
:1005D30029F582E5833AF583E0225006E92582F87E
:1005E300E622BBFE06E92582F8E222E58229F582AE
:1005F300E5833AF583E49322BB010689828A83F07B
:10060300225002F722BBFE01F322BB0110E582292F
:10061300F582E5833AF583E0F5F0A3E0225009E99A
:100623002582F886F008E622BBFE0AE92582F8E275
:10063300F5F008E222E5832AF583E993F5F0A3E9CF
:100643009322C3E49FFFE49EFEE49DFDE49CFC2211
:10065300EB9FF5F0EA9E42F0E99D42F0E89C45F0FD
:1006630022E8600FECC313FCED13FDEE13FEEF1352
:10067300FFD8F122BB010DE58229F582E5833AF526
:10068300830207B75007E92582F80207ABBBFE07D1
:10069300E92582F80207C3E58229F582E5833AF565
:1006A300830207CFFAE6FB0808E6F925F0F618E619
:1006B300CA3AF622D083D082F8E49370127401937D
:1006C300700DA3A393F8740193F5828883E4737484
:1006D30002936860EFA3A3A380DF75F0087582001F
:1006E300EF2FFFEE33FECD33CDCC33CCC58233C5F4
:1006F300829BED9AEC99E58298400CF582EE9BFE85
:10070300ED9AFDEC99FC0FD5F0D6E4CEFBE4CDFADF
:10071300E4CCF9A88222B800C1B90059BA002DEC83
:100723008BF084CFCECDFCE5F0CBF97818EF2FFF1B
:10073300EE33FEED33FDEC33FCEB33FB10D70399C3
:100743004004EB99FB0FD8E5E4F9FA227818EF2F70
:10075300FFEE33FEED33FDEC33FCC933C910D7058F
:100763009BE99A4007EC9BFCE99AF90FD8E0E4C9AE
:10077300FAE4CCFB2275F010EF2FFFEE33FEED33DE
:10078300FDCC33CCC833C810D7079BEC9AE899400B
:100793000AED9BFDEC9AFCE899F80FD5F0DAE4CD6D
:1007A300FBE4CCFAE4C8F922E6FC08E6FD08E6FE21
:1007B30008E6FF22E0FCA3E0FDA3E0FEA3E0FF22A6
:1007C300E2FC08E2FD08E2FE08E2FF22E493FC7487
:1007D3000193FD740293FE740393FF22E542242EDA
:1007E300F8E6054222782B300702782EE475F001F3
:1007F3001206A70205B52000EB7F2ED2008018EF6A
:10080300540F2490D43440D4FF30040BEF24BFB4EE
:100813001A0050032461FFE543600215430546E5D2
:10082300467002054530070D782BE475F00112067A
:10083300A7EF0205FB0200867403D2078003E4C21C
:1008430007F5428B2B8A2C892DE4F543F545F546B4
:10085300E54360077F2012081A80F57544FFC20143
:10086300C200C202C203C205C206C2081207E8FFE1
:10087300700D3007057F0012082BAF46AE4522B43A
:10088300255FC2D5C2041207E8FF24D0B40A005082
:100893001A75F00A784330D50508B6FF0106C6A4D9
:1008A30026F620D5047002D20380D924CFB41A00CF
:1008B300EF5004C2E5D204020B18D20180C6D20065
:1008C30080C0D20280BCD2D580BAD20580B47F204A
:1008D30012081A2002077401B5430040F11207DF22
:1008E300FF12081A020853D208D20680951207DFB6
:1008F300FB1207DFFA1207DFF94A4B7006790F7A0A
:100903000C7BFF20022EE543602A7E008E827583D6
:10091300001205CE60060EEE654470F0C2D5EBC042
:10092300E0EAC0E0E9C0E0EE120B78D0E0F9D0E0F5
:10093300FAD0E0FB1205B5FF60AAEBC0E0EAC0E025
:10094300E9C0E012081AD0E02401F9D0E03400FA3B
:10095300D0E0FBE5440460DCD544D98087D2028033
:10096300A2120B5B60F7E54470010412031BA94458
:10097300600DE544600914F544120C02EF60F3EADC
:1009830030E702F404C3995077EAF425440430E7CE
:1009930001E404F544800D120B5B60C1EA054425B4
:1009A3004412031BEA7841F630E701E4254404D5F9
:1009B300440420050114120B78E4C0E0120C027801
:1009C30041E6601320E70714F6120802802204F6BA
:1009D300D0E014C0E07F00120802E544600712076C
:1009E300F91544800B3005031207F9D0E0020853D0
:1009F300D0E00480C5120B5B60A0E5440412031B26
:100A03007841EAF6E5442005026001042404120B50
:100A13007874FF04C0E0120C02120802E5442005BA
:100A23000260031207F9D0E0B544E87F4512080CD1
:100A33007841E67F2B30E7047F2DF404C0E01208F1
:100A43001AD0E075F00A84C0F0120803D0E012084F
:100A530003020853791080027908C206C20880088D
:100A6300D2D5790A8004790AC2D5E544047002F527
:100A730044E4FAFDFEFF1207DFFC7B08200113129A
:100A830007DFFD7B1030000A1207DFFE1207DFFFCE
:100A93007B20EC3382D592D55013C3E43000069FFC
:100AA300FFE49EFEE42001039DFDE49CFCE4CBF8FF
:100AB300C201EC700CCFCECDCCE824F8F870F380F3
:100AC30017C3EF33FFEE33FEED33FDEC33FCEB33B3
:100AD300FB994002FB0FD8E9EB300105F8D0E0C4E5
:100AE30048B201C0E00AEC4D4E4F78207B0070C243
:100AF300EAB5440040BCC0E0120B7AD0F0D0E0204D
:100B03000104C4C0E0C4B201C0F0120803D0F0D5A0
:100B1300F0EB0208531206B708F0530A575808C1FE
:100B23004C08BD420A5B4F0A63440A634908D64333
:100B33000A6955099A4609F8450964470C2F500874
:100B4300C52D08C92E08EC2B08CD2308EA200C1864
:100B53002A088548000008E4E544B4FF0375440609
:100B63001207DFFC1207DFFD1207DFFE1207DFFFAC
:100B7300783A02034A790AA2D5200314300509B949
:100B830010020404B9080104A2D52006025001048E
:100B93002002689202B543005034C0E07F20300346
:100BA300197F30A20272067205500F120BD1C202D6
:100BB300C206C205C2087F30800F300503E9C0E0DA
:100BC30012081A300503D0E0F9D0E0B543CC300564
:100BD300177F30B9100C12081A7F583004077F783A
:100BE3008003B9080312081A3002057F2D02081A80
:100BF3007F202008F87F2B2006F322920280CF7FEC
:100C030000B407005005243AF8E6FF22286E756CFD
:100C13006C2900D2011207DF3001F8C2017843309A
:100C2300D50108F60208852D504349581207DF24E1
:100C330003B405004001E4900C2A9312080B743AA4
:100C430012080BD203754304020A578F2B8B2C8A8D
:100C53002D892EE4F532F531F530F52FEF600302DF
:100C63000D6BF598AB2CAA2DA92E9000011205CE81
:100C7300C43354E0FF1205B5FE4FFF900002120586
:100C8300CEC454F04FFF9000031205CE33333354D8
:100C9300F84FFF9000041205CE25E025E04F42985F
:100CA30053877F9000051205CEC4333333548042FB
:100CB30087EEFF64406008EF64C06003020DE8AB99
:100CC3002CAA2DA92E9000061205CE70475391FE33
:100CD30053890F438920538EEF90000712060DFDB1
:100CE300ACF0EC120261A804A905AA06AB077F00C9
:100CF3007E247D747C491201BFE4FBFA7940783F7E
:100D03001201BF12029AEFF404F58BF58D43A88804
:100D130043884022AB2CAA2DA92E9000061205CEA3
:100D230064016003020DE843910153D20F43D26083
:100D330090000712060DFDACF0EC120261A804A9A5
:100D430005AA06AB077F007E247D747C491201BF90
:100D5300E4FBFA7980783E1200B612029AEFF404AB
:100D6300F5E2F5E343D28022E52B64017077F5EADF
:100D7300AB2CAA2DA92E9000011205CEC43354E04A
:100D8300FF1205B5FE4FFF9000021205CEC454F0CA
:100D93004FFF9000031205CE33333354F84FFF90C7
:100DA30000041205CE25E025E04F42EA5387BF90A9
:100DB30000051205CEC4333354C04287EEFF6440AE
:100DC3006005EF64C0701EAB2CAA2DA92E900006FF
:100DD3001205CEFF7E0070045391FD22EF64014E95
:100DE300700343910222EFC39408748094805015DA
:100DF300EFFB90F000E02BFBE4338B82F583E4F010
:100E030090F000806DEFC3941274809480501BC3E4
:100E1300EF940AF9FB90F010E02BFBE4338B82F59F
:100E230083E4F0E9FF90F0108048EFC3941C7480D2
:100E33009480501BC3EF9414F9FB90F020E02BFB3C
:100E4300E4338B82F583E4F0E9FF90F0208023EF15
:100E5300C39426748094805025C3EF941EF9FB90AD
:100E6300F030E02BFBE4338B82F583E4F0E9FF9071
:100E7300F030E02FFFE4338F82F583E04DF022C0A2
:100E8300E0C0F0C083C082C0D075D000C000C001F4
:100E9300C002C003C004C005C006C007754C00757E
:100EA3004B00754A0075490012000E8E088F09E544
:100EB3000F2401F50FE4350EF50EE4350DF50DE4C1
:100EC300350CF50CE47F64FEFDFCAB0FAA0EA90DF7
:100ED300A80CD3120653400C750F00750E00750D48
:100EE30000750C00E50F5401FFE4FEFCEF60047B8A
:100EF300018002E4FB7D057F01120F1AD007D006A3
:100F0300D005D004D003D002D001D000D0D0D082FD
:100F1300D083D0F0D0E032EF7020EB600EA80574E0
:100F230001088002C333D8FC428022A8057401085B
:100F33008002C333D8FCF4528022EF64017020EBAB
:100F4300600EA8057401088002C333D8FC429022C6
:100F5300A8057401088002C333D8FCF4529022EF31
:100F630064027020EB600EA8057401088002C3338D
:100F7300D8FC42A022A8057401088002C333D8FC20
:100F8300F452A022EF64037021EB600EA8057401F4
:100F9300088002C333D8FC42B022AF05A80774010E
:100FA300088002C333D8FCF452B022787FE4F6D829
:100FB300FD75814C020FF502001EE493A3F8E49340
:100FC300A34003F68001F208DFF48029E493A3F839
:100FD3005407240CC8C333C4540F4420C8834004AB
:100FE300F456800146F6DFE4800B0102040810206A
:100FF30040809012D2E47E019360BCA3FF543F3043
:10100300E509541FFEE493A360010ECF54C025E00D
:1010130060A840B8E493A3FAE493A3F8E493A3C8C5
:10102300C582C8CAC583CAF0A3C8C582C8CAC58356
:10103300CADFE9DEE780BEC0E0C0F0C083C082C083
:10104300D075D000C000C001C002C003C004C005F9
:10105300C006C00712135E8E0A8F0BE5132401F539
:1010630013E43512F512E43511F511E43510F510DA
:10107300E47F64FEFDFCAB13AA12A911A810D312DE
:101083000653400C7513007512007511007510009E
:10109300E5135401FFE4FEFCEF60047B018002E4EE
:1010A300FB7D067F01120F1AD007D006D005D004AE
:1010B300D003D002D001D000D0D0D082D083D0F0E2
:1010C300D0E032C0E0C0F0C083C082C0D075D00091
:1010D300C000C001C002C003C004C005C006C007F1
:1010E300B2957F8012134FEF60057F801200037F5C
:1010F3004012134FEF60057F401200037F08121365
:101103004FEF60057F081200037F0412134FEF6057
:10111300057F041200037F0212134FEF60057F0265
:101123001200037F0112134FEF60057F01120003CA
:10113300D007D006D005D004D003D002D001D00010
:10114300D0D0D082D083D0F0D0E032C0E0C0F0C0A5
:1011530083C082C0D075D000C000C001C002C003EC
:10116300C004C005C006C0077547007548007F80EE
:10117300121331EF60157F80121340EF700D7F4023
:10118300121340EF70057F10121340D007D006D022
:1011930005D004D003D002D001D000D0D0D082D06B
:1011A30083D0F0D0E032C0E0C0F0C083C082C0D0B2
:1011B30075D000C000C001C002C003C004C005C098
:1011C30006C0077D02E4FF1212F7EF60077D02E419
:1011D300FF12131B7D01E4FF1212F7EF60077D027C
:1011E300E4FF12131BD007D006D005D004D003D0E0
:1011F30002D001D000D0D0D082D083D0F0D0E03262
:10120300C0E0C0F0C083C082C0D075D000C000C0B1
:1012130001C002C003C004C005C006C0077D027F31
:10122300011212F7EF60077D027F0112131B7D018C
:101233007F011212F7EF60077D027F0112131BD0AB
:1012430007D006D005D004D003D002D001D000D0FF
:10125300D0D082D083D0F0D0E0327D027F19120D3E
:10126300E97D027F1A120DE9752240E4F523752406
:1012730001752501752601F5277528017529257541
:101283002A80FB7A007922FF120C4E7B017D01E458
:10129300FF1212A07BFF7A13796B020841EF7014DF
:1012A300EB600D53B8EFEDC454F042B843A81022DD
:1012B30053A8EF22EF64017015EB600F53B8BFED35
:1012C300C4333354C042B843A8402253A8BF2204B6
:1012D3000C000000000410000000000208000002DF
:1012E3000A0000011D00041900000000051401029A
:1012F30004081000E4FCEFFB7A007006E5985DFC3F
:10130300800AEB64014A7004E5EA5DFCEC60047E4C
:10131300018002E4FEAF0622EFFB7A007005EDF4D4
:10132300F59822EB64014A7004EDF4F5EA22E4FE39
:10133300E5B25F60030E8002E4FEAF0622E4FEE541
:10134300ED5F60030E8002E4FEAF0622E4FEE5C912
:101353005F60030E8002E4FEAF0622AE8DAF8BEF1B
:10136300FDAF06EFFEAF05223C3C2D2D2D2D554143
:0F13730052543020746573742D2D2D2D3E3E0085
:00000001FF
