:10000000020D3DEFF452C922323222020C17AE8C9F
:10001000AF8AEFFDAF06EFFEAF0522020DC9AE8D30
:10002000AF8BEFFDAF06EFFEAF0522020E55C2D536
:10003000E830E70FB2D5E4C39BFBE49AFAE499F900
:10004000E498F8EC30E717B2D5120064120B51E4D3
:10005000C39BFBE49AFAE499F9E498F88003120B45
:100060005130D50DE4C39FFFE49EFEE49DFDE49C6A
:0E007000FC22EF6003D2AF22C2AF22020008D2
:100083000200090420000000000424000000000214
:100093001C0000021E0000013100042D00000000BE
:0800A300052801020408100009
:1000B300020F56EF600302024C120A3570129000D1
:1000C30008120A4E2400FDE434F08D82F583E4F037
:1000D300900001120A4EFE7009900008120A4EF4B5
:1000E300529AEEB40108900008120A4E429A900008
:1000F30002120A4EFEB4011890F008C083C082E0D9
:10010300FD900008120A4EF4FCED5CD082D083F01F
:10011300EE701790F008C083C082E0FE90000812D2
:100123000A4EFDEE4DD082D083F0900003120A4EAA
:10013300FE701890F009C083C082E0FD90000812A1
:100143000A4EF4FCED5CD082D083F0EEB40117903C
:10015300F009C083C082E0FE900008120A4EFDEE53
:100163004DD082D083F0900004120A4EFE70189096
:10017300F00AC083C082E0FD900008120A4EF4FC2E
:10018300ED5CD082D083F0EEB4011790F00AC08307
:10019300C082E0FE900008120A4EFDEE4DD082D0E0
:1001A30083F0900005120A4EFE701890F00BC08386
:1001B300C082E0FD900008120A4EF4FCED5CD08290
:1001C300D083F0EEB4011790F00BC083C082E0FE41
:1001D300900008120A4EFDEE4DD082D083F09000BD
:1001E30006120A4EFE701890F00CC083C082E0FD28
:1001F300900008120A4EF4FCED5CD082D083F0EE3E
:10020300B4011790F00CC083C082E0FE9000081286
:100213000A4EFDEE4DD082D083F0900007120A4EB5
:10022300FE701890F00DC083C082E0FD90000812AC
:100233000A4EF4FCED5CD082D083F0EE64016003DF
:100243000207CF90F00D020618EF64016003020469
:1002530083120A357012900008120A4E2410FDE42E
:1002630034F08D82F583E4F0900001120A4EFE70A3
:1002730015900008120A4EFD7401A805088002C3F8
:1002830033D8FCF452A1EEB40114900008120A4EC4
:10029300FE7401A806088002C333D8FC42A1900073
:1002A30002120A4EFEB4012290F018C083C082E00D
:1002B300FD900008120A4EFC7401A804088002C3D2
:1002C30033D8FCF45DD082D083F0EE702190F01827
:1002D300C083C082E0FE900008120A4EFD7401A89C
:1002E30005088002C333D8FC4ED082D083F090003F
:1002F30003120A4EFE702290F019C083C082E0FD03
:10030300900008120A4EFC7401A804088002C3334B
:10031300D8FCF45DD082D083F0EEB4012190F019C3
:10032300C083C082E0FE900008120A4EFD7401A84B
:1003330005088002C333D8FC4ED082D083F09000EE
:1003430004120A4EFE702290F01AC083C082E0FDB0
:10035300900008120A4EFC7401A804088002C333FB
:10036300D8FCF45DD082D083F0EEB4012190F01A72
:10037300C083C082E0FE900008120A4EFD7401A8FB
:1003830005088002C333D8FC4ED082D083F090009E
:1003930005120A4EFE702290F01BC083C082E0FD5E
:1003A300900008120A4EFC7401A804088002C333AB
:1003B300D8FCF45DD082D083F0EEB4012190F01B21
:1003C300C083C082E0FE900008120A4EFD7401A8AB
:1003D30005088002C333D8FC4ED082D083F090004E
:1003E30006120A4EFE702290F01CC083C082E0FD0C
:1003F300900008120A4EFC7401A804088002C3335B
:10040300D8FCF45DD082D083F0EEB4012190F01CCF
:10041300C083C082E0FE900008120A4EFD7401A85A
:1004230005088002C333D8FC4ED082D083F09000FD
:1004330007120A4EFE702290F01DC083C082E0FDB9
:10044300900008120A4EFC7401A804088002C3330A
:10045300D8FCF45DD082D083F0EE64016003020720
:10046300CF90F01DC083C082E0FF900008120A4EB7
:10047300FE7401A806088002C333D8FC4F0207CAE2
:10048300EF6402600302062A120A35701290000814
:10049300120A4E2420FDE434F08D82F583E4F090BB
:1004A3000001120A4EFE7009900008120A4EF4521F
:1004B300A2EEB40108900008120A4E42A290000274
:1004C300120A4EFEB4011890F028C083C082E0FDEA
:1004D300900008120A4EF4FCED5CD082D083F0EE5B
:1004E300701790F028C083C082E0FE900008120AC3
:1004F3004EFDEE4DD082D083F0900003120A4EFEE3
:10050300701890F029C083C082E0FD900008120AA1
:100513004EF4FCED5CD082D083F0EEB4011790F082
:1005230029C083C082E0FE900008120A4EFDEE4D02
:10053300D082D083F0900004120A4EFE701890F01F
:100543002AC083C082E0FD900008120A4EF4FCED3D
:100553005CD082D083F0EEB4011790F02AC083C040
:1005630082E0FE900008120A4EFDEE4DD082D08349
:10057300F0900005120A4EFE701890F02BC083C055
:1005830082E0FD900008120A4EF4FCED5CD082D0AC
:1005930083F0EEB4011790F02BC083C082E0FE908D
:1005A3000008120A4EFDEE4DD082D083F090000673
:1005B300120A4EFE701890F02CC083C082E0FD90AA
:1005C3000008120A4EF4FCED5CD082D083F0EEB446
:1005D300011790F02CC083C082E0FE900008120A3D
:1005E3004EFDEE4DD082D083F0900007120A4EFEEE
:1005F300701890F02DC083C082E0FD900008120AAD
:100603004EF4FCED5CD082D083F0EE640160030213
:1006130007CF90F02DC083C082E0FF900008120A3C
:100623004EFEEF4E0207CAEF640360030207CF12C8
:100633000A357012900008120A4E2430FFE434F099
:100643008F82F583E4F0900001120A4EFF70099047
:100653000008120A4EF452A3EFB4010890000812E6
:100663000A4E42A3900002120A4EFFB4011890F002
:1006730038C083C082E0FE900008120A4EF4FDEEFB
:100683005DD082D083F0EF701790F038C083C082C2
:10069300E0FF900008120A4EFEEF4ED082D083F0A6
:1006A300900003120A4EFF701890F039C083C08285
:1006B300E0FE900008120A4EF4FDEE5DD082D08376
:1006C300F0EFB4011790F039C083C082E0FF9000CF
:1006D30008120A4EFEEF4ED082D083F0900004122F
:1006E3000A4EFF701890F03AC083C082E0FE90007B
:1006F30008120A4EF4FDEE5DD082D083F0EFB40110
:100703001790F03AC083C082E0FF900008120A4EAF
:10071300FEEF4ED082D083F0900005120A4EFF7098
:100723001890F03BC083C082E0FE900008120A4E8E
:10073300F4FDEE5DD082D083F0EFB4011790F03B6F
:10074300C083C082E0FF900008120A4EFEEF4ED035
:1007530082D083F0900006120A4EFF701890F03C8E
:10076300C083C082E0FE900008120A4EF4FDEE5DE5
:10077300D082D083F0EFB4011790F03CC083C082E5
:10078300E0FF900008120A4EFEEF4ED082D083F0B5
:10079300900007120A4EFF701890F03DC083C0828C
:1007A300E0FE900008120A4EF4FDEE5DD082D08385
:1007B300F0EFB4011790F03DC083C082E0FF9000DA
:1007C30008120A4EFEEF4ED082D083F022EC4D6029
:1007D30011E8497017ED33EC3304600DE4FCFFFEC0
:1007E300FD22E933E8330470F8020A201209EB58BA
:1007F300046009E4CC24815006285009020A2A28FF
:100803004003020A27C0E0EB4A7044B98006D0E0F7
:10081300FB020A16EF4E701CBD8008EBFFEAFEE9EF
:10082300FD80EBE98DF0A4FEE5F00208B9E9CDF90E
:10083300EAFEEBFFEF89F0A4FCE5F0CE89F0A42EED
:10084300FFE435F0CD89F0A42DFEE435F08067EFA9
:100853004E7005BD80D780C3EF8BF0A4ACF0EE8B58
:10086300F0A42CFCE435F0F8EF8AF0A42CE5F03882
:10087300FCE433CB8DF0A42CFCE5F03BF8EE8AF0DE
:10088300A42CFCE5F038F8E433CF89F0A42CFCE584
:10089300F038CF3400CE89F0A42FFFE5F03EFEE41C
:1008A30033C98DF0A42EFEE5F039CD8AF0A42FFFD5
:1008B300E5F03EFEE43DFD33D0E0FB50070BBB000B
:1008C3000F020A2AEC2CFCEF33FFEE33FEED33FD6F
:1008D300020A02020A2AEC5D046005E85904700367
:1008E300020A201209EB580460F6EC4860F2EC703F
:1008F30004FDFEFF22C860DB2481C85009C3986051
:10090300025006020A279850CAF582E9294B4A7019
:1009130005AB82020A1675F0007C1A7880C3EF9B40
:10092300EE9AED99400DC3EF9BFFEE9AFEED99FD14
:10093300E842F0DC23ACF0D0E0FFD0E0FED0E0FDF5
:10094300AB8220E7101BEB60BAEC2CFCEF33FFEE1D
:1009530033FEED33FD020A02E803F830E705C0F089
:1009630075F000EF2FFFEE33FEED33FD40B830E7B7
:10097300C280AA75F020800E75F010800575F0080E
:100983007D007E007F003392D530D503120AB3EC8D
:10099300334010EF33FFEE33FEED33FDEC33FCD584
:1009A300F0ED22E5F0247EA2D513CC92E7CDCEFF65
:1009B30022EDD2E7CD33EC3392D524814006E4FF18
:1009C300FEFDFC22FCE4CFCECDCC24E0501174FF1D
:1009D30080EDC3CC13CCCD13CDCE13CECF13CF0428
:1009E30070F030D5DE020AB3E9D2E7C933E833F851
:1009F30092D5EDD2E7CD33EC33FC5002B2D522ECE5
:100A030030E7100FBF000C0EBE00080DBD00040B35
:100A1300EB6014A2D5EB13FCED92E7FD2274FFFC0F
:100A2300FDFEFF22E480F8A2D574FF13FC7D80E471
:100A330080EFBB010689828A83E0225002E722BB52
:100A4300FE02E32289828A83E49322BB010CE582BE
:100A530029F582E5833AF583E0225006E92582F8F9
:100A6300E622BBFE06E92582F8E222E58229F58229
:100A7300E5833AF583E49322BB0110E58229F582ED
:100A8300E5833AF583E0F5F0A3E0225009E92582F6
:100A9300F886F008E622BBFE0AE92582F8E2F5F0C3
:100AA30008E222E5832AF583E993F5F0A3E993228B
:100AB300C3E49FFFE49EFEE49DFDE49CFC22EB9FC8
:100AC300F5F0EA9E42F0E99D42F0E89C45F022E809
:100AD300600FECC313FCED13FDEE13FEEF13FFD811
:100AE300F122BB010DE58229F582E5833AF5830204
:100AF3000BEF5007E92582F8020BE3BBFE07E9255C
:100B030082F8020BFBE58229F582E5833AF583023D
:100B13000C0775F008758200EF2FFFEE33FECD331F
:100B2300CDCC33CCC58233C5829BED9AEC99E5825B
:100B330098400CF582EE9BFEED9AFDEC99FC0FD5E7
:100B4300F0D6E4CEFBE4CDFAE4CCF9A88222B800D7
:100B5300C1B90059BA002DEC8BF084CFCECDFCE5A2
:100B6300F0CBF97818EF2FFFEE33FEED33FDEC33C6
:100B7300FCEB33FB10D703994004EB99FB0FD8E54B
:100B8300E4F9FA227818EF2FFFEE33FEED33FDEC94
:100B930033FCC933C910D7059BE99A4007EC9BFC8A
:100BA300E99AF90FD8E0E4C9FAE4CCFB2275F01016
:100BB300EF2FFFEE33FEED33FDCC33CCC833C8103B
:100BC300D7079BEC9AE899400AED9BFDEC9AFCE869
:100BD30099F80FD5F0DAE4CDFBE4CCFAE4C8F922B6
:100BE300E6FC08E6FD08E6FE08E6FF22E0FCA3E0DB
:100BF300FDA3E0FEA3E0FF22E2FC08E2FD08E2FE23
:100C030008E2FF22E493FC740193FD740293FE74E3
:100C13000393FF22C0E0C0F0C083C082C0D075D070
:100C230000C000C001C002C003C004C005C006C0AC
:100C330007751B00751A0075190075180012000E50
:100C43008E1C8F1DE5232401F523E43522F522E4D0
:100C53003521F521E43520F520E47F64FEFDFCAB6E
:100C630023AA22A921A820D3120AC1400C7523006C
:100C7300752200752100752000E5235401FFE4FE71
:100C8300FCEF60047B018002E4FB7D057F01120C15
:100C9300AFD007D006D005D004D003D002D001D006
:100CA30000D0D0D082D083D0F0D0E032EF7020EBF0
:100CB300600E7401A805088002C333D8FC42802269
:100CC3007401A805088002C333D8FCF4528022BF04
:100CD3000120EB600E7401A805088002C333D8FC21
:100CE3004290227401A805088002C333D8FCF45251
:100CF3009022BF0220EB600E7401A805088002C396
:100D030033D8FC42A0227401A805088002C333D85B
:100D1300FCF452A022BF0321EB600E7401A8050866
:100D23008002C333D8FC42B022AF057401A8070880
:100D33008002C333D8FCF452B022787FE4F6D8FDA6
:100D4300758131020D8402104CE493A3F8E493A35C
:100D53004003F68001F208DFF48029E493A3F854FA
:100D630007240CC8C333C4540F4420C8834004F47D
:100D730056800146F6DFE4800B0102040810204090
:100D830080900086E47E019360BCA3FF543F30E56E
:100D930009541FFEE493A360010ECF54C025E06005
:100DA300A840B8E493A3FAE493A3F8E493A3C8C5D3
:100DB30082C8CAC583CAF0A3C8C582C8CAC583CAC4
:100DC300DFE9DEE780BEC0E0C0F0C083C082C0D0F0
:100DD30075D000C000C001C002C003C004C005C07C
:100DE30006C00712001E8E1E8F1FE5272401F5275C
:100DF300E43526F526E43525F525E43524F524E404
:100E03007F64FEFDFCAB27AA26A925A824D3120ADA
:100E1300C1400C752700752600752500752400E573
:100E2300275401FFE4FEFCEF60047B018002E4FB36
:100E33007D067F01120CAFD007D006D005D004D0B9
:100E430003D002D001D000D0D0D082D083D0F0D054
:100E5300E032C0E0C0F0C083C082C0D075D000C013
:100E630000C001C002C003C004C005C006C007B271
:100E7300957F8012107CEF60057F801200037F4016
:100E830012107CEF60057F401200037F0812107C74
:100E9300EF60057F081200037F0412107CEF6005EA
:100EA3007F041200037F0212107CEF60057F0212A1
:100EB30000037F0112107CEF60057F01120003D055
:100EC30007D006D005D004D003D002D001D000D083
:100ED300D0D082D083D0F0D0E03253890F538EEF3D
:100EE300900001120A4EFFC454F0FE120A35FDC4ED
:100EF300333354C04E4289900002120A4EFEC4544A
:100F0300F0428EEF701A900003120AE57805120A78
:100F1300D28F8D900003120AE5EF541FFF8F8B22AF
:100F2300900001120A4EB40116900003120AE578EC
:100F330008120AD28F8D900003120AE58F8B22903C
:100F43000001120A4EB4020A900003120AE58F8DC3
:100F53008F8B22C0E0C0F0C083C082C0D075D000A8
:100F6300C000C001C002C003C004C005C006C00762
:100F73007516007517007F8012105EEF60157F8075
:100F830012106DEF700D7F4012106DEF70057F1022
:100F930012106DD007D006D005D004D003D002D0F4
:100FA30001D000D0D0D082D083D0F0D0E032E4F5AD
:100FB30008750902750A01750E64F50DF50CF50B3C
:100FC300F50F751002F511751576F514F513F51275
:100FD300FB7A00790F120EDD7D01E4FF1210367FDC
:100FE3000112108B7F01020072E4F5087509017587
:100FF3000A01F50B750C01750D01750E01750F01D5
:10100300751005FB7A0079087F011200B67510068A
:101013007B007A0079087F010200B6EF70038D80B0
:1010230022BF01038D9022BF02038DA022BF0302C2
:101033008DB02253B8F7EF33333354F842B8ED6031
:101043000443A8082253A8F72212000A120FECE463
:10105300FD7F0112101E120FB180FEE4FEE5B25FA8
:1010630060030E8002E4FEAF0622E4FEE5ED5F605E
:10107300030E8002E4FEAF0622E4FEE5C95F6003CF
:101083000E8002E4FEAF0622EF6004438840225341
:0310930088BF22F1
:00000001FF
