:10000000020D40EFF452C922B29532020C1AAE8CA6
:10001000AF8AEFFDAF06EFFEAF05220200083232D5
:03002300020EAD1D
:03002B00020DCCF7
:10003300020F07C2D5E830E70FB2D5E4C39BFBE458
:100043009AFAE499F9E498F8EC30E717B2D512007C
:100053006C1208D9E4C39BFBE49AFAE499F9E49897
:10006300F880031208D930D50DE4C39FFFE49EFE48
:07007300E49DFDE49CFC226A
:03007B0002001E62
:1000830002001F04300000000004340000000002DE
:100093002C0000022E0000013C000438016E3600E3
:1000A30000E4FEE5B25F60030E8002E4FEAF0622C9
:1000B300020E52EF600302024C1207D0701290003E
:1000C300081207E92400FDE434F08D82F583E4F09F
:1000D3009000011207E9FE70099000081207E9F485
:1000E300529AEEB401089000081207E9429A900070
:1000F300021207E9FEB4011890F008C083C082E041
:10010300FD9000081207E9F4FCED5CD082D083F087
:10011300EE701790F008C083C082E0FE90000812D2
:1001230007E9FDEE4DD082D083F09000031207E97A
:10013300FE701890F009C083C082E0FD90000812A1
:1001430007E9F4FCED5CD082D083F0EEB4011790A4
:10015300F009C083C082E0FE9000081207E9FDEEBB
:100163004DD082D083F09000041207E9FE701890FE
:10017300F00AC083C082E0FD9000081207E9F4FC96
:10018300ED5CD082D083F0EEB4011790F00AC08307
:10019300C082E0FE9000081207E9FDEE4DD082D048
:1001A30083F09000051207E9FE701890F00BC083EE
:1001B300C082E0FD9000081207E9F4FCED5CD082F8
:1001C300D083F0EEB4011790F00BC083C082E0FE41
:1001D3009000081207E9FDEE4DD082D083F0900025
:1001E300061207E9FE701890F00CC083C082E0FD90
:1001F3009000081207E9F4FCED5CD082D083F0EEA6
:10020300B4011790F00CC083C082E0FE9000081286
:1002130007E9FDEE4DD082D083F09000071207E985
:10022300FE701890F00DC083C082E0FD90000812AC
:1002330007E9F4FCED5CD082D083F0EE6401600347
:100243000207CF90F00D020618EF64016003020469
:10025300831207D070129000081207E92410FDE4FE
:1002630034F08D82F583E4F09000011207E9FE700B
:10027300159000081207E9FD7401A805088002C360
:1002830033D8FCF452A1EEB401149000081207E92C
:10029300FE7401A806088002C333D8FC42A1900073
:1002A300021207E9FEB4012290F018C083C082E075
:1002B300FD9000081207E9FC7401A804088002C33A
:1002C30033D8FCF45DD082D083F0EE702190F01827
:1002D300C083C082E0FE9000081207E9FD7401A804
:1002E30005088002C333D8FC4ED082D083F090003F
:1002F300031207E9FE702290F019C083C082E0FD6B
:100303009000081207E9FC7401A804088002C333B3
:10031300D8FCF45DD082D083F0EEB4012190F019C3
:10032300C083C082E0FE9000081207E9FD7401A8B3
:1003330005088002C333D8FC4ED082D083F09000EE
:10034300041207E9FE702290F01AC083C082E0FD18
:100353009000081207E9FC7401A804088002C33363
:10036300D8FCF45DD082D083F0EEB4012190F01A72
:10037300C083C082E0FE9000081207E9FD7401A863
:1003830005088002C333D8FC4ED082D083F090009E
:10039300051207E9FE702290F01BC083C082E0FDC6
:1003A3009000081207E9FC7401A804088002C33313
:1003B300D8FCF45DD082D083F0EEB4012190F01B21
:1003C300C083C082E0FE9000081207E9FD7401A813
:1003D30005088002C333D8FC4ED082D083F090004E
:1003E300061207E9FE702290F01CC083C082E0FD74
:1003F3009000081207E9FC7401A804088002C333C3
:10040300D8FCF45DD082D083F0EEB4012190F01CCF
:10041300C083C082E0FE9000081207E9FD7401A8C2
:1004230005088002C333D8FC4ED082D083F09000FD
:10043300071207E9FE702290F01DC083C082E0FD21
:100443009000081207E9FC7401A804088002C33372
:10045300D8FCF45DD082D083F0EE64016003020720
:10046300CF90F01DC083C082E0FF9000081207E91F
:10047300FE7401A806088002C333D8FC4F0207CAE2
:10048300EF6402600302062A1207D070129000087C
:100493001207E92420FDE434F08D82F583E4F09023
:1004A30000011207E9FE70099000081207E9F452EF
:1004B300A2EEB401089000081207E942A2900002DC
:1004C3001207E9FEB4011890F028C083C082E0FD52
:1004D3009000081207E9F4FCED5CD082D083F0EEC3
:1004E300701790F028C083C082E0FE9000081207C6
:1004F300E9FDEE4DD082D083F09000031207E9FEB0
:10050300701890F029C083C082E0FD9000081207A4
:10051300E9F4FCED5CD082D083F0EEB4011790F0E7
:1005230029C083C082E0FE9000081207E9FDEE4D6A
:10053300D082D083F09000041207E9FE701890F087
:100543002AC083C082E0FD9000081207E9F4FCEDA5
:100553005CD082D083F0EEB4011790F02AC083C040
:1005630082E0FE9000081207E9FDEE4DD082D083B1
:10057300F09000051207E9FE701890F02BC083C0BD
:1005830082E0FD9000081207E9F4FCED5CD082D014
:1005930083F0EEB4011790F02BC083C082E0FE908D
:1005A30000081207E9FDEE4DD082D083F0900006DB
:1005B3001207E9FE701890F02CC083C082E0FD9012
:1005C30000081207E9F4FCED5CD082D083F0EEB4AE
:1005D300011790F02CC083C082E0FE900008120740
:1005E300E9FDEE4DD082D083F09000071207E9FEBB
:1005F300701890F02DC083C082E0FD9000081207B0
:10060300E9F4FCED5CD082D083F0EE640160030278
:1006130007CF90F02DC083C082E0FF90000812073F
:10062300E9FEEF4E0207CAEF640360030207CF122D
:1006330007D070129000081207E92430FFE434F069
:100643008F82F583E4F09000011207E9FF700990AF
:1006530000081207E9F452A3EFB40108900008124E
:1006630007E942A39000021207E9FFB4011890F0D2
:1006730038C083C082E0FE9000081207E9F4FDEE63
:100683005DD082D083F0EF701790F038C083C082C2
:10069300E0FF9000081207E9FEEF4ED082D083F00E
:1006A3009000031207E9FF701890F039C083C082ED
:1006B300E0FE9000081207E9F4FDEE5DD082D083DE
:1006C300F0EFB4011790F039C083C082E0FF9000CF
:1006D300081207E9FEEF4ED082D083F09000041297
:1006E30007E9FF701890F03AC083C082E0FE9000E3
:1006F300081207E9F4FDEE5DD082D083F0EFB40178
:100703001790F03AC083C082E0FF9000081207E917
:10071300FEEF4ED082D083F09000051207E9FF7000
:100723001890F03BC083C082E0FE9000081207E9F6
:10073300F4FDEE5DD082D083F0EFB4011790F03B6F
:10074300C083C082E0FF9000081207E9FEEF4ED09D
:1007530082D083F09000061207E9FF701890F03CF6
:10076300C083C082E0FE9000081207E9F4FDEE5D4D
:10077300D082D083F0EFB4011790F03CC083C082E5
:10078300E0FF9000081207E9FEEF4ED082D083F01D
:100793009000071207E9FF701890F03DC083C082F4
:1007A300E0FE9000081207E9F4FDEE5DD082D083ED
:1007B300F0EFB4011790F03DC083C082E0FF9000DA
:1007C300081207E9FEEF4ED082D083F022BB010668
:1007D30089828A83E0225002E722BBFE02E3228958
:1007E300828A83E49322BB010CE58229F582E583A7
:1007F3003AF583E0225006E92582F8E622BBFE069D
:10080300E92582F8E222E58229F582E5833AF58338
:10081300E49322BB0110E58229F582E5833AF5834F
:10082300E0F5F0A3E0225009E92582F886F008E616
:1008330022BBFE0AE92582F8E2F5F008E222E5830D
:100843002AF583E993F5F0A3E99322E88FF0A4CC8A
:100853008BF0A42CFCE98EF0A42CFC8AF0EDA42CE4
:10086300FCEA8EF0A4CDA8F08BF0A42DCC3825F0B3
:10087300FDE98FF0A42CCD35F0FCEB8EF0A4FEA99E
:10088300F0EB8FF0A4CFC5F02ECD39FEE43CFCEAAB
:10089300A42DCE35F0FDE43CFC2275F008758200F2
:1008A300EF2FFFEE33FECD33CDCC33CCC58233C532
:1008B300829BED9AEC99E58298400CF582EE9BFEC3
:1008C300ED9AFDEC99FC0FD5F0D6E4CEFBE4CDFA1E
:1008D300E4CCF9A88222B800C1B90059BA002DECC2
:1008E3008BF084CFCECDFCE5F0CBF97818EF2FFF5A
:1008F300EE33FEED33FDEC33FCEB33FB10D7039902
:100903004004EB99FB0FD8E5E4F9FA227818EF2FAE
:10091300FFEE33FEED33FDEC33FCC933C910D705CD
:100923009BE99A4007EC9BFCE99AF90FD8E0E4C9EC
:10093300FAE4CCFB2275F010EF2FFFEE33FEED331C
:10094300FDCC33CCC833C810D7079BEC9AE8994049
:100953000AED9BFDEC9AFCE899F80FD5F0DAE4CDAB
:10096300FBE4CCFAE4C8F922EB9FF5F0EA9E42F0EF
:10097300E99D42F0E89C45F022E8600FECC313FCCC
:10098300ED13FDEE13FEEF13FFD8F122BB010DE5CE
:100993008229F582E5833AF5830209FB5007E925AD
:1009A30082F80209EFBBFE07E92582F8020A07E590
:1009B3008229F582E5833AF583020A13BB010DE52B
:1009C3008229F582E5833AF583020A305007E92547
:1009D30082F8020A23BBFE07E92582F8020A3CE5F6
:1009E3008229F582E5833AF583020A49E6FC08E6A3
:1009F300FD08E6FE08E6FF22E0FCA3E0FDA3E0FE1F
:100A0300A3E0FF22E2FC08E2FD08E2FE08E2FF2287
:100A1300E493FC740193FD740293FE740393FF2229
:100A2300E6FB08E6F908E6FA08E6CBF822E0F8A3C5
:100A3300E0F9A3E0FAA3E0FB22E2FB08E2F908E213
:100A4300FA08E2CBF822E493F8740193F974029361
:100A5300FA740393FB228F1E8B1F8A208921E4F5EE
:100A630025F524F523F522E51E6003020B9AF5987C
:100A7300AB1FAA20A9219000011207E9C43354E057
:100A8300FF1207D0FE4FFF9000021207E9C454F093
:100A93004FFF9000031207E933333354F84FFF90AD
:100AA30000041207E925E025E04F429853877F9021
:100AB30000051207E9C433333354804287EE6440A0
:100AC3006010AB1FAA20A9211207D064C0600302E3
:100AD3000C19AB1FAA20A9219000061207E9705533
:100AE3005391FE53890F438920438E1090000512C2
:100AF30007E92401FFE433FEE4FCFDAB3BAA3AA97A
:100B030039A83812084EE47B20FAF9F81208D9E420
:100B13007B04FAF9F81208D9AB1FAA20A921900087
:100B2300071209BF1208D9EFF404F58BF58D43A81A
:100B33008843884022AB1FAA20A9219000061207F0
:100B4300E964016003020C1943910153D20F43D2AC
:100B5300609000051207E92401FFE433FEE4FCFD85
:100B6300AB3BAA3AA939A83812084EE47B20FAF91C
:100B7300F81208D9E47B04FAF9F81208D9AB1FAAD2
:100B830020A9219000071209BF1208D9EFF404F538
:100B9300E2F5E343D28022E51E64017079F5EAAB06
:100BA3001FAA20A9219000011207E9C43354E0FFD2
:100BB3001207D0FE4FFF9000021207E9C454F04F12
:100BC300FF9000031207E933333354F84FFF9000CB
:100BD300041207E925E025E04F42EA5387BF90005E
:100BE300051207E9C4333354C04287EE6440600CF6
:100BF300AB1FAA20A9211207D0B4C01AAB1FAA2089
:100C0300A9219000061207E9FF70045391FD22EF1A
:100C1300B4010343910222C0E0C0F0C083C082C08C
:100C2300D075D000C000C001C002C003C004C0051D
:100C3300C006C007752B00752A00752900752800AA
:100C430012000E8E2C8F2DE5332401F533E435325B
:100C5300F532E43531F531E43530F530E47F64FEC7
:100C6300FDFCAB33AA32A931A830D312096B400C77
:100C7300753300753200753100753000E53354016A
:100C8300FFE4FEFCEF60047B018002E4FB7D057F53
:100C930001120CB2D007D006D005D004D003D00285
:100CA300D001D000D0D0D082D083D0F0D0E032EFCA
:100CB3007020EB600E7401A805088002C333D8FCD2
:100CC3004280227401A805088002C333D8FCF45281
:100CD3008022BF0120EB600E7401A805088002C3C7
:100CE30033D8FC4290227401A805088002C333D88C
:100CF300FCF4529022BF0220EB600E7401A8050899
:100D03008002C333D8FC42A0227401A805088002E4
:100D1300C333D8FCF452A022BF0321EB600E74014D
:100D2300A805088002C333D8FC42B022AF05740182
:100D3300A807088002C333D8FCF452B022787FE4BA
:100D4300F6D8FD75813C020D8702107BE493A3F86E
:100D5300E493A34003F68001F208DFF48029E493CF
:100D6300A3F85407240CC8C333C4540F4420C883C6
:100D73004004F456800146F6DFE4800B01020408C8
:100D830010204080900086E47E019360BCA3FF5452
:100D93003F30E509541FFEE493A360010ECF54C016
:100DA30025E060A840B8E493A3FAE493A3F8E4939E
:100DB300A3C8C582C8CAC583CAF0A3C8C582C8CAA6
:100DC300C583CADFE9DEE780BEC0E0C0F0C083C0F0
:100DD30082C0D075D000C000C001C002C003C004EF
:100DE300C005C006C0077F801210AEEF60057F808C
:100DF3001200037F401210AEEF60057F4012000324
:100E03007F081210AEEF60057F081200037F041203
:100E130010AEEF60057F041200037F021210AEEFE5
:100E230060057F021200037F011210AEEF60057FA1
:100E330001120003D007D006D005D004D003D0029E
:100E4300D001D000D0D0D082D083D0F0D0E032C057
:100E5300E0C0F0C083C082C0D075D000C000C00124
:100E6300C002C003C004C005C006C00775260075D4
:100E730027007F801200A4EF60157F8012109FEF80
:100E8300700D7F4012109FEF70057F1012109FD0DE
:100E930007D006D005D004D003D002D001D000D0B3
:100EA300D0D082D083D0F0D0E032C0E0C0F0C08395
:100EB300C082C0D075D000C000C001C002C003C052
:100EC30004C005C006C0077D02E4FF12105DEF6099
:100ED300077D02E4FF12108F7D01E4FF12105DEF26
:100EE30060077D02E4FF12108FD007D006D005D033
:100EF30004D003D002D001D000D0D0D082D083D090
:100F0300F0D0E032C0E0C0F0C083C082C0D075D062
:100F130000C000C001C002C003C004C005C006C0B9
:100F2300077D027F0112105DEF60077D027F0112D2
:100F3300108F7D017F0112105DEF60077D027F013D
:100F430012108FD007D006D005D004D003D002D022
:100F530001D000D0D0D082D083D0F0D0E0327D0257
:100F63007F19120FB4750A01751205750B01750C03
:100F730001E4F50D750E01750F0175100175110171
:100F8300FB7A00790A7F021200B6751340E4F51468
:100F9300F515751601751701751801751901751D7C
:100FA30080751C25F51BF51AFB7A007913FF020ADD
:100FB30059EFC394085005EF24008028EFC394121F
:100FC3005008C3EF940A2410801AEFC3941C5008EE
:100FD300C3EF94142420800CEFC394265013C3EF63
:100FE300941E2430FBE434F08B82F583E4F0E04D6F
:100FF300F022EF7018E5985402C313640160F68D74
:1010030099E5985402C31360F85398FD22BF011762
:10101300E5EA5402C313640160F68DEBE5EA54027A
:10102300C31360F853EAFD22E4F50A750B01750C4E
:1010330001F50D750E01750F01751001751101751F
:101043001205FB7A00790A7F011200B67512067B3E
:10105300007A00790A7F010200B6E4FCEF7006E52E
:10106300985DFC8007BF0104E5EA5DFCEC60047E4B
:10107300018002E4FEAF0622E4F508F50912102B05
:10108300120F617DA5E4FF120FF580F7EF7005EDF8
:10109300F4F59822BF0104EDF4F5EA22E4FEE5ED50
:1010A3005F60030E8002E4FEAF0622E4FEE5C95F43
:0A10B30060030E8002E4FEAF062287
:00000001FF
